:020000040000FA
:100000000004002035020000390200003B0200001D
:1000100000000000000000000000000000000000E0
:100020000000000000000000000000003D02000091
:1000300000000000000000003F020000410200003C
:10004000430200004302000043020000430200009C
:10005000430200004302000043020000430200008C
:10006000430200004302000043020000430200007C
:1000700043020000430200004302000000F002F8C7
:1000800000F030F80CA030C8083824182D18A2460B
:10009000671EAB4654465D46AC4201D100F022F8E3
:1000A0007E460F3E0FCCB6460126334200D0FB1AE7
:1000B000A246AB463343184728020000380200002E
:1000C0000023002400250026103A01D378C1FBD874
:1000D000520700D330C100D50B6070471FB51FBD5C
:1000E00010B510BD00F0BFF81146FFF7F7FF00F0A4
:1000F0002EF800F0D7F803B4FFF7F2FF03BC00F0CE
:10010000DDF8000010B500F0E1F800F04FF800BF96
:1001100043480068482188434149086000BF00BF48
:1001200040488069802188433E49886100BF00BF04
:100130000020C86100BF00BF00213B48016000BF34
:1001400010BD052000043949086000BF7047002435
:10015000FFF7D8FFFFF7F5FF00BFFF21013133485C
:1001600000F020F801214902304800F017F800247F
:1001700000E0641C2E488442FBDBFF2101312B4848
:1001800000F00CF801214902284800F00BF8002487
:1001900000E0641C26488442DFDAFAE782680A43FA
:1001A0008260704782688A438260704700BF012086
:1001B0001C49896808229143C20008231A40114350
:1001C000184A916000BF00201146896804229143BB
:1001D000820004231A401143124A916000BF00BFFD
:1001E00000BF0F4989690909090101430C4A91615E
:1001F00000BF07201146096981430143116100BF17
:1002000003201146096A0143116200BF0220114612
:100210000968402291438143014A116000BF704741
:10022000000200500000005000010050404000500B
:10023000C027090006480047FEE7FEE7FEE7FEE7A5
:10024000FEE7FEE703480449024A044B70470000FA
:100250007D00000060040020000400200000002059
:10026000704770477047754600F024F8AE460500A9
:1002700069465346C008C000854618B020B5FFF750
:10028000E1FF60BC00274908B6460026C0C5C0C5CE
:10029000C0C5C0C5C0C5C0C5C0C5C0C5403D49007A
:1002A0008D46704710B50446C046C0462046FFF74D
:1002B00022FF10BD004870470004002001491820AB
:1002C000ABBEFEE72600020070470000034859213C
:1002D0000160162101608821016070470001005013
:1002E000F00200000004002060000000C0000000D8
:0400000500000235C0
:00000001FF
