:020000040000FA
:10000000000300206D05000071050000730500006D
:1000100000000000000000000000000000000000E0
:100020000000000000000000000000007505000056
:1000300000000000000000007705000079050000C6
:100040007B0500007B050000830300007B050000AA
:100050007B0500007B0500007B0500007B050000A0
:100060007B0500007B0500007B0500007B05000090
:100070007B0500007B0500007B05000000F002F816
:1000800000F04EF80CA030C8083824182D18A246ED
:10009000671EAB4654465D46AC4201D100F040F8C5
:1000A0007E460F3E0FCCB6460126334200D0FB1AE7
:1000B000A246AB46334318474416000074160000AE
:1000C000103A02D378C878C1FAD8520701D330C8A1
:1000D00030C101D504680C60704700000023002483
:1000E00000250026103A01D378C1FBD8520700D36F
:1000F00030C100D50B60704710B5782902D100F0EF
:1001000091FA10BD002010BD1FB50098019900F0B4
:10011000CCFF00F0F9FC1FBD10B500F061FD10BD73
:1001200000F0C3FD1146FFF7EFFF00F06EF800F09E
:100130006BFF03B4FFF7F0FF03BC01F0A7F800006A
:1001400070B5002400250220654949690C229143BD
:1001500082000C231A401143614A516100BFFF2005
:10016000AF30114689695F4A114002045D4BDB43A1
:100170001A4011435A4A916100BF01F0D1F9044677
:1001800000BF01F0FDF90646554880690001000DE9
:10019000411C304600F088FA05466008A84205D2A6
:1001A000514800F06BFA51A000F068FA70BD10B52C
:1001B00001F016FA00F059F800BF494800684821DC
:1001C00088434749086000BF00BF504880698021CC
:1001D00088434E49886100BF00BF0020C86100BF4E
:1001E000FFF7AEFF00BF00214948016000BF10BD0E
:1001F00048484649096B0143444A116300BF5520F2
:1002000000044549086000BF704700BFFFF7CFFFFB
:10021000FFF7EEFF00F0D6F800F05CF93FA000F029
:100220002DFA00BFFF2101313B4800F01AF80121EF
:100230004902394800F011F8642001F0F7F9FF2174
:100240000131354800F009F801214902324800F037
:1002500008F8642001F0EAF9E4E782680A43826062
:10026000704782688A438260704700BF0120274937
:10027000896808229143C20008231A401143234A87
:10028000916000BF002011468968042291438200DA
:1002900004231A4011431D4A916000BF00BF00BFF4
:1002A0000F4989690909090101430D4A916100BF9C
:1002B00007201146096981430143116100BF0320F2
:1002C0001146096A0143116200BF02201146096804
:1002D000402291438143024A116000BF70470000F1
:1002E00000020050FFFF00F0B8160000436865638D
:1002F0006B20616463436C6F636B496E697428297A
:1003000020696E204D61696E2E630A000000005066
:10031000000100501E3F000040400050676F7420F5
:10032000706173742073746172745F6164630D0A29
:100330000000000010B5854A126C30239A43030177
:10034000302423401A43814B1A641A46126C9208D7
:1003500092008B079B0F1A437C4B1A6410BD70B53B
:10036000044600250AE000BF7848006BC007C00FB4
:10037000002803D000F0D0F8681C85B2A542F2DB5B
:1003800070BD10B500F0C8F8002081006F4A5158C8
:1003900009B26F4801800021415E00290BDA008814
:1003A000404200B26A49088008460021415E69A0C7
:1003B00000F0F4F805E066480021415E67A000F017
:1003C000EDF810BDFEB501F081F800BF5F48006A8E
:1003D00040084000401C5D49086200BF00BF08465D
:1003E000C06B0321890508435849C86300BF002139
:1003F0000846FFF79FFF642001F018F90321084623
:10040000FFF798FF00F09AF8002110220B46012018
:100410004E4CE46B844304434C4DEC632C46E46B3C
:100420000625AC435D00062635402C43474DEC6362
:100430002C46E46B4B4D2C4015024A4EF64335409A
:100440002C43424DEC632C46E46B1F252D06AC4338
:100450000D061F26360635402C433C4DEC6300BF8D
:1004600003202946096A0C22914382000C231A407A
:1004700011432A46116200BF01201146096A020396
:100480009143020303031A4011432A46116200BF3D
:1004900000200F210A460B460C460D4600910191A3
:1004A0000E0136181702F719009E3603BE191F04F5
:1004B000F6192705F6192F06F719019E3607BE19FA
:1004C000224F7E6200BF00F030F800F073FF00F0B2
:1004D00035F8FEBD10B500F028F805200002FFF742
:1004E0003EFF00BF00F018F81848006A0221884358
:1004F000801C1649086202200121814042099200B5
:10050000194BD218116000BF00BF10BD72B6104960
:100510000020085E62B670470C48006B06218843D5
:10052000012108430949086370470848006A01210E
:10053000C902884340180549086270470348006AA9
:100540000121C902884301490862704700000E403A
:10055000000300202D25780D0A00000025780D0AE3
:1005600000000000FF00FEFF00E100E00648004739
:10057000FEE7FEE7FEE7FEE7FEE7FEE70348044985
:10058000044A054B704700007D0000007004002005
:100590000003002070050020000000200FB4054972
:1005A00010B503AA029800F087F910BC08BC04B08B
:1005B0001847000064030020F8B50E4604460020EA
:1005C00020622046E1688847002829D0252802D0EB
:1005D0006268A16820E0E16820460027884705009E
:1005E0001ED028464138192802D80127FF0220359D
:1005F0003246204627602946FFF77EFD002808D0B6
:10060000012804D0F61DF608F6000836D9E7361D95
:10061000D7E762682846A1689047206A401CCFE768
:10062000206AF8BD70B504460D4621461068C046E4
:10063000C0462188090502D50F4A7A4402E00E4AD5
:100640007A440E3223460021243305E006070009D0
:10065000360F965D5E54491C0028F7D120780023A0
:10066000000705D5702D03D0002901D002231132D7
:10067000204600F0C9F870BD4410000010B50446D3
:1006800003E000F0EFFF401C08D020780549641C0F
:100690000028F6D10A2000F0E5FF10BD0020C0437D
:1006A00010BD000064030020002203098B422CD3FC
:1006B000030A8B4211D300239C464EE003460B43B2
:1006C0003CD4002243088B4231D303098B421CD314
:1006D000030A8B4201D394463FE0C3098B4201D306
:1006E000CB01C01A524183098B4201D38B01C01A3E
:1006F000524143098B4201D34B01C01A52410309B5
:100700008B4201D30B01C01A5241C3088B4201D363
:10071000CB00C01A524183088B4201D38B00C01A10
:10072000524143088B4201D34B00C01A5241411A37
:1007300000D201465241104670475DE0CA0F00D01A
:100740004942031000D34042534000229C46030913
:100750008B422DD3030A8B4212D3FC22890112BA99
:10076000030A8B420CD3890192118B4208D3890171
:1007700092118B4204D389013AD0921100E0890989
:10078000C3098B4201D3CB01C01A524183098B426A
:1007900001D38B01C01A524143098B4201D34B0153
:1007A000C01A524103098B4201D30B01C01A5241B6
:1007B000C3088B4201D3CB00C01A524183088B423D
:1007C00001D38B00C01A5241D9D243088B4201D3C6
:1007D0004B00C01A5241411A00D2014663465241B1
:1007E0005B10104601D34042002B00D549427047B0
:1007F00063465B1000D3404201B50020C046C046AE
:1008000002BD704770477047FFB504460D4681B082
:10081000243000902168880604D51022E0699143B5
:10082000216000E00120A84201DD471B00E0002715
:100830000498A1697A191018081AA0612078C006D6
:1008400002D42046C046C046002608E003986268ED
:10085000A168805D9047206A401C761C2062049845
:100860008642F3DB2078C0060AD52046C046C04643
:1008700006E06268A16830209047206A401C206230
:1008800038467F1E0028F4DC07E000986268A16803
:10089000405D9047206A401C206228466D1E00285B
:1008A000F3DC2046C046C0462078000602D5022070
:1008B00005B0F0BD0120FBE7084B70B50D467B4449
:1008C00000F013F80446284600F022F8002802D071
:1008D0000020C04370BD204670BD0000A30D000085
:1008E00001694A1C02610878704700B58FB0029117
:1008F0000021059105490193794403911146049023
:100900006846FFF759FE0FB000BD0000E5FFFFFF8E
:10091000C068802108407047F8B505460C46C86895
:100920000521C9048843012189050843E060800648
:1009300002D5204600F0ACFA7149E0680140022976
:1009400003D0204600F04EFABCE005210122490305
:100950000140D20391420FD1C00306D56168E06A1D
:10096000884200D80846606006E02069E062606066
:10097000606900F094F9A061A1680022EEB200293C
:100980000EDAE06883050BD4C943A1600921226017
:1009900049030843E0606068411C61600670ACE098
:1009A000E068012149030843E060002020602069DD
:1009B000002831D1606900F064F901252746243709
:1009C000ED02002816D0A0898005800F08D0E069CC
:1009D00000F08AF90028206102D0E068284318E07E
:1009E00001202761E061E0680321090288430121B9
:1009F00089020DE0E06900F077F900282061EFD06E
:100A0000E0682843E0608105890F03D1FF210131AF
:100A10000843E06020696060E2683A4F2569D005CC
:100A20001FD56168E06A884200D80846411B05D09E
:100A30002246284600F0E0F9002843D1E068010290
:100A400004D5E56200206560A06053E0691CE162A6
:100A50006160E169491E3843A160E06030462E7054
:100A6000F8BD100201D53A4009E06068411C6160A0
:100A70000670E06838430A2EE06006D00022E16A82
:100A80006068814203D90B4602E00122F7E7034682
:100A9000A7895B1B7F0504D4E7699F4201DD002A1B
:100AA0001ED0814200D801460F1A0020E562656021
:100AB000002BA06009DD22461946284600F09CF96B
:100AC000002802D00020C043F8BD002F08D0A06944
:100AD000E5626560C01BA061E06810210843E0602A
:100AE000E068000209D56168A069E562491B401809
:100AF0006560A0610120C043F8BD3046F8BD00002C
:100B0000821000000000010010B54348542100F09D
:100B1000A7FA4248542100F0A3FA4148542100F0BA
:100B20009FFA40483C493D4B404A01603E480360C3
:100B30003B4810605A1C0A65411C1965012101657A
:100B40003C48354A3AA1784400F0C4F9002804D161
:100B5000384878440C3800F05FFA38482F4A36A1FC
:100B6000784400F0B7F9002804D1344878440C38B0
:100B700000F052FA32482A4A2FA1784400F0AAF92C
:100B8000002804D12E4878440C3800F045FA402360
:100B90002148DC000021224600F0FEF8002804D0A5
:100BA000244878445C3800F037FA1C482246402339
:100BB000002100F0F1F8002804D0204878445C3887
:100BC00000F02AFA164822461023002100F0E4F82B
:100BD000002804D01A4878445C3800F01DFA10BD93
:100BE0000F4870B5006D44080B48640000F0E6F94A
:100BF0000A4800F0E3F90A4800F0E0F909E0206D46
:100C0000450820466D0000F0D9F9204600F09DF817
:100C10002C46002CF3D170BD10030020640300208B
:100C2000B803002004030020080300200C03002068
:100C300072000000600B0000770000004A0B00000B
:100C4000340B00000EB50191009000F0FDFA029007
:100C500069460120ABBE0EBD08B569460090022072
:100C6000ABBE08BD1FB56B4607C369460520ABBECA
:100C700004B010BD1FB56C460FC469460620ABBE5C
:100C8000F6E708B5694600900920ABBE08BD1CB563
:100C900000900A2001916946ABBE1CBD704708B5A3
:100CA000694600900C20ABBE08BD754600F0DAF92D
:100CB000AE46050069465346C008C000854618B0D8
:100CC00020B5FFF75BFC60BC00274908B64600264C
:100CD000C0C5C0C5C0C5C0C5C0C5C0C5C0C5C0C5EC
:100CE000403D49008D46704770B5064600F0C0F99A
:100CF000056830460B30C408E400B44201D8002037
:100D000070BD68682A46002818D00168A14211D336
:100D10000B46214608318B4208D3436801194B60CA
:100D200003681B1B0B605160046001E04168516067
:100D3000001D70BD024640680028E6D121462846C5
:100D400000F09EF90028DCD170BD70B50446051F87
:100D500000F08EF90068002C1AD0446801E02046AB
:100D60006468002C01D0AC42F9D301680A18AA4289
:100D700004D12A6805468918016000E045602868AA
:100D80004119A14205D16168696021684018286055
:100D900070BD6C6070BD000070B5C468A50713D04D
:100DA000650211D4D51FF93D0AD0FF3D6D1E07D055
:100DB000FF3DFF3D022D07D101462431012305E00F
:100DC000074E5D1EB54201D3012070BD0161C361B4
:100DD00041600F2109028C431443C460002070BDA0
:100DE000FFFFFF00C1688022114392039143C1605D
:100DF0000021816001607047F7B514460E46334804
:100E0000D5685769054209D03846A169FFF73FFF09
:100E1000002811DB2D48C0430540E5602B463246D3
:100E200038460099FFF71EFF4200A1695208B21A26
:100E300089180028A16104D02046FFF7D3FF0020C5
:100E4000C043FEBD70B504460569C06A616888424A
:100E500000D80846E1680522D2049143E160C90345
:100E600014D5A84209D02246411B2846FFF7C4FFEB
:100E7000002802D00020C04370BDE56200206560FC
:100E8000A060E068012109048843E060002070BD93
:100E900010B50446C06820218843E060A16AA069BB
:100EA00088420ED02046FFF7CDFFE06803210903FA
:100EB000884310210843E060A06AA0612069E062D5
:100EC00060600349E0680840E06010BD1000020067
:100ED000BFBFFFFFF7B516460C46104600F06EF890
:100EE0002078611C61280AD0722802D0772839D175
:100EF00002E00125002404E00225042401E02D4D38
:100F000008240222032301270878491C2B2806D035
:100F1000622807D02039C87F742807D008E01D4315
:100F20001443F1E7042005433C43EDE7102004435C
:100F300000982146FFF786FE411C13D00021316145
:100F400071600121F5604902F1617061200704D5EB
:100F500030460222002100F0DDF8306D3843306564
:100F60003046FEBD0020FEBDF8B50D460646124CCB
:100F7000206DC10704D0410804D044086400F7E79D
:100F8000224610E05420FFF7AFFE070010D079088A
:100F9000206D490001221143084354212065384641
:100FA00000F05EF83A4629463046FFF793FFF8BD59
:100FB0000020F8BD0280000010030020FEB50446AA
:100FC000466900690F4F0190E56800200090A8076E
:100FD00007D02046FFF736FF3046FFF73DFE0028DA
:100FE00001DA3846FEBD280502D50198FFF7ADFEAF
:100FF0004C21204600F034F8206D40084000206568
:101000000098FEBDFFFFFFFF10B50446C046C04676
:101010002046FFF78EF810BD10B500F0FBF800F089
:10102000F3F810BD01E004C0091F0429FBD28B07AF
:1010300001D50280801CC90700D0027070470029CA
:101040000BD0C30702D00270401C491E022904D3F2
:10105000830702D50280801C891EE3E70022EEE7A9
:101060000022DFE7004870470C04002070470000B2
:10107000004870471404002070477047704770475D
:1010800038B504460A4600206946C046C0460028D6
:1010900005D002462046009900F0FEF8012038BD38
:1010A00010B5012000F04DF910BDF8B5C046C0469E
:1010B000054600200C461020C0460646A819A0424E
:1010C0000DD9324669460020C046C046070001D10E
:1010D00000F037F90098A04200D00546C419FFF788
:1010E000C7FFF61D07460560F008C00046192846F0
:1010F00000F008F8B44204D031463868A21B00F072
:10110000CBF8F8BD0021016041608060704710207D
:1011100070470000F8B5044616460D464769007B47
:10112000800730D03846FFF7ACFD00282BD132467F
:101130001026002A25D0012A02D0022A23D104E059
:10114000204600F0C3F845191BE03846FFF7A7FD1D
:10115000E16831430028E16004DA2046FFF742FEEF
:101160000120F8BDC9030BD56268E16A914200D83D
:101170001146A26989182269891A814200DD084650
:101180002D18002D01DA0220F8BDE16A6068E268DE
:10119000814206D29103E06203D5012149048A43CA
:1011A0003243A669AE4211DCE16A814201D90B46A5
:1011B00000E003469F192369FF1AAF4206DD814212
:1011C00001D90F4600E007469F4206D12020024386
:1011D0000020A060A56220600DE0AD1BE669AE1B9B
:1011E0008142A66000D90846C01A281A2060581902
:1011F000606020208243034802400020E2604034C7
:101200002072F8BDBFCFD7FF10B5002801D000F085
:101210003DF810BD10B5014602A000F078F801209D
:1012200010BD000053494752545245443A2052657C
:101230006469726563743A2063616E2774206F700D
:10124000656E3A200000000030B5441C03E00178D0
:10125000401C00290DD08107F9D10B4BDD0104C8DA
:10126000D11A91432940FAD0001B0A0603D0C01EB0
:1012700030BD001B30BD0A0401D0801E30BD090204
:10128000FCD0401E30BD00000101010101491820C1
:10129000ABBEFEE72600020010B50346406801E041
:1012A00003464068002801D08842F9D31868C31863
:1012B0008B4206D0CB1CD808C000001D411A521A20
:1012C0000146081D0A60FFF740FD10BD10B501463C
:1012D000C268900703D0900607D5886A0AE000F03C
:1012E0003DF801210160881E10BD8B694868C01857
:1012F0000B69C01A40310B7A002B02D0497A401A90
:1013000010BD1103FCD50028FADD401E10BD70B5DC
:1013100005460C460A2000E06D1C00F018F8002D70
:1013200006D028780028F7D102E0641C00F00FF8FE
:10133000002C02D020780028F7D10A2000F007F80E
:1013400070BD10B500F00EF8FFF75EFF10BD08B5D8
:10135000694608700320ABBE08BD00000048704716
:101360000C04002010B5012805D0002103A0FFF7D0
:10137000CEFF012010BD09A1F8E7000053494752F4
:10138000544D454D3A204F7574206F662068656155
:1013900070206D656D6F7279000000003A2048651D
:1013A0006170206D656D6F727920636F72727570F8
:1013B00074656400F8B5384800903848C16B012264
:1013C0001143C1630025354CE06B35490840E90500
:1013D000C90B0843E0630026206BC007C00F02D092
:1013E00000F062F8761C082EF6D300273E462B4804
:1013F000006BC007C00FFAD000F056F8002000F0D4
:101400005DF80446012000F059F82418022000F08D
:1014100055F82418032000F051F82418042000F097
:101420004DF82418052000F049F82418062000F093
:1014300045F82418072000F041F82018C010761C49
:101440003F18B6B2082ED2D3F81000B215490028C2
:10145000088014DC13480022825E009952429142B7
:1014600014DA2902FF390139CA030C49D20BCB6BBC
:101470000B4C23401A43CA630099018006E06D1C9F
:10148000ADB20090E81FFF38FA389CD10348C16B19
:1014900049084900C163F8BDFF07000000000E4085
:1014A000FF00FEFF020300200348016BC908C900CA
:1014B000491C01637047000000000E400249800093
:1014C000085800B27047000000000E400549012096
:1014D0008A68000702438A600349C8600020C86028
:1014E00070470000000200500000005002498A6866
:1014F00082438A60704700000002005002498A68F7
:1015000002438A60704700000002005010B5034893
:1015100040694003400F00F047F810BD0002005042
:1015200010B50C4A10694007400F10D0022809D0AE
:10153000042809D0084891690907090F491CFFF7D9
:10154000B3F810BD0548F6E700F00AF8F3E77D2090
:101550000002F0E700020050006CDC02808D5B00AE
:101560000448006A0449C006800F484303494018F4
:101570007047000000020050808D5B0080C3C901ED
:1015800010B5074840690007800F04D0022805D035
:10159000FFF7C6FF10BDFFF7E3FF10BD014810BD08
:1015A00000020050006CDC02014610B50020012949
:1015B00006D0032903D0042905D0FFF7B1FF10BDE1
:1015C0007D20000210BD014810BD0000006CDC024F
:1015D0000249C8600020C860704700000000005049
:1015E000034859210160162101608821016070477C
:1015F0000001005010B51020FFF7EAFF1020FFF7A0
:1016000075FF10BD70B505460C461020FFF776FF3C
:101610001020FFF7DDFF044A5068000C000420434F
:101620005060156070BD00004000014070B5064676
:101630000025FFF76BFF7D21C900FFF735F881B268
:101640000920C006FFF7DEFF0548C1688CB2AC4236
:1016500001D2761E01D02546F7E7FFF7CBFF70BD1C
:101660004000014010B58A68002A02DCFFF754F9F7
:1016700010BD521E8A604A68C0B2531C4B60107085
:1016800010BD303132333435363738394142434476
:1016900045464030580030313233343536373839EA
:1016A000616263646566403078003A7474003A742D
:1016B00074003A7474000000414443436C6B206929
:1016C000732067726561746572207468616E20684A
:1016D000616C6620746865206672657175656E63FD
:1016E00079206F66207468652048434C4B2E205447
:1016F0006861742773206261642E0A002C17000051
:101700000003002010000000C00000003C17000093
:10171000100300205C010000DC0000003C1700000A
:101720006C04002004010000DC0000000000000048
:0C173000000000000000000000000000AD
:040000050000056D85
:00000001FF
