:020000040000FA
:1000000000030020F5060000F9060000FB060000D2
:1000100000000000000000000000000000000000E0
:10002000000000000000000000000000FD060000CD
:100030000000000000000000FF06000001070000B3
:10004000030700000307000013030000030700007C
:100050000307000003070000030700000307000078
:10006000030700000307000003070000610500000C
:1000700003070000030700000307000000F002F878
:1000800000F03EF80CA030C8083824182D18A246FD
:10009000671EAB4654465D46AC4201D100F030F8D5
:1000A0007E460F3E0FCCB6460126334200D0FB1AE7
:1000B000A246AB4633431847BC0B0000EC0B0000D4
:1000C000103A02D378C878C1FAD8520701D330C8A1
:1000D00030C101D504680C60704700000023002483
:1000E00000250026103A01D378C1FBD8520700D36F
:1000F00030C100D50B6070471FB51FBD10B510BDD6
:1001000000F0C0FB1146FFF7F7FF00F071F800F0B8
:10011000D8FB03B4FFF7F2FF03BC00F0DFFB0000E5
:1001200070B5002400250220604949690C229143E2
:1001300082000C231A4011435C4A516100BFFF202A
:10014000AF30114689695A4A11400204584BDB43CB
:100150001A401143554A916100BF00F07DFC0446EE
:1001600000BF00F0A9FC0646504880690001000D60
:10017000411C304600F0D6FA054670BD10B500F0BF
:100180002BFD00F059F800BF48480068482188431B
:100190004649086000BF00BF464880698021884307
:1001A0004449886100BF00BF0020C86100BFFFF75D
:1001B000B7FF00BF00214048016000BF10BD10B56F
:1001C0003E483C49096B01433A4A116300BF1E2077
:1001D0001146496B0143516300BF55200004384963
:1001E000086000BFFF210131354800F021F810BD43
:1001F00000BFFFF7C3FFFFF7E2FF00F095F800F044
:100200001BF900F05DF900BFFF2101312C4800F01F
:100210000FF8642000F006FDFF20013028498968AE
:100220000143274A916000BF642000F0FBFCEBE72C
:1002300082688A438260704700BF01201D49896837
:1002400008229143C20008231A401143194A9160C1
:1002500000BF0020114689680422914382000423D4
:100260001A401143134A916000BF00BF00BF0F49FD
:1002700089690909090101430C4A916100BF0720FE
:100280001146096981430143116100BF03201146F2
:10029000096A0143116200BF022011460968402229
:1002A00091438143014A116000BF70470002005032
:1002B000FFFF00F000000050000100501E3F000052
:1002C0004040005010B57A4A126C30239A43030123
:1002D000302423401A43764B1A641A46126C920853
:1002E00092008B079B0F1A43714B1A6410BD70B5B7
:1002F000044600250AE000BF6D48006BC007C00F30
:10030000002803D000F0BAF8681C85B2A542F2DBE1
:1003100070BD10B500F0B2F800208100644A515859
:1003200009B26448018010BDFEB500F06BFB00BF50
:100330005F48006A40084000401C5D49086200BFF9
:1003400000BF0846C06B0321890508435849C863AC
:1003500000BF00210846FFF7B5FF642000F062FCF3
:1003600003210846FFF7AEFF00F09AF800211022A3
:100370000B4601204E4CE46B844304434C4DEC632C
:100380002C46E46B0625AC435D00062635402C4325
:10039000474DEC632C46E46B474D2C401502464E0E
:1003A000F64335402C43424DEC632C46E46B1F254D
:1003B0002D06AC430D061F26360635402C433C4D1A
:1003C000EC6300BF03202946096A0C229143820096
:1003D0000C231A4011432A46116200BF0120114626
:1003E000096A02039143020303031A4011432A4698
:1003F000116200BF00200F210A460B460C460D4635
:10040000009101910E0136181702F719009E36036C
:10041000BE191F04F6192705F6192F06F719019EB4
:100420003607BE19224F7E6200BF00F030F800F0A0
:100430005DFA00F035F8FEBD10B500F028F8052093
:100440000002FFF754FF00BF00F018F81848006AD8
:1004500002218843801C1649086202200121814044
:1004600042099200154BD218116000BF00BF10BDA9
:1004700072B610490020085E62B670470C48006BE7
:100480000621884301210843094908637047084849
:10049000006A0121C9028843401805490862704773
:1004A0000348006A0121C902884301490862704774
:1004B00000000E4000030020FF00FEFF00E100E00E
:1004C00070B500F0C9FA0546844900F02BF9002800
:1004D00007D000F0C1FA0546804900F023F9401E1C
:1004E00000E0002084B2224644217D4800F03CFB1D
:1004F00001207B49096805221204914382041143BB
:10050000774A116000BF00BF1146896810229143ED
:10051000020110231A401143714A916000BFA621C5
:10052000104600F0D9F86E4800F0CBF86C4800F0A7
:1005300001FB70BD10B56A4800F0E6FA10BD10B5B9
:1005400004462146664800F0C7F8654800F0B9F84F
:1005500010BD10B5624800F0BCF8C4B2204610BD12
:1005600010B500BF5E480068C003C00F002811D05E
:100570005B4800F0AEF8C4B22046FFF7E0FF00BFD2
:10058000574800680121090488434018544908600D
:1005900000BF00BF10BD70B500F05EFA05465149BE
:1005A00000F0C0F8002807D000F056FA05464D4983
:1005B00000F0B8F8401E00E0002084B2224644213A
:1005C000494800F0D1FA01200021C2008B00D21866
:1005D000454B9A6000BF00BF1946896889088900A9
:1005E00001431A46916000BF0121082012683F4B69
:1005F0001A404B1E1B021A43C3001A433A4B1A609F
:1006000000BF70BD10B5384800F07EFA10BD10B5BF
:10061000354800F05EF8C4B2204610BD10B504465F
:100620002146314800F058F82F4800F04AF810BD34
:1006300010B586B00024002168460172017027E0E1
:1006400000BF00BF26480068C007C00F002805D0C3
:100650000221274800F031F80028F2D00221244876
:1006600000F02BF8002813D11D4800F032F802A941
:1006700008551D4800F02DF869460855C320FFF7BE
:100680005EFF4220FFF7CAFF082C01DA601CC4B2EB
:100690000221174800F011F80028D1D00020694647
:1006A0000874611E6A46505CFFF749FF611E02AA8A
:1006B000505CFFF7B3FF06B010BD0246106908405A
:1006C0007047016801221204914301221143016025
:1006D00070470146086970470162704700127A004E
:1006E00000400340A08601000000034007FCFEFF1D
:1006F0004040005006480047FEE7FEE7FEE7FEE701
:10070000FEE7FEE703480449044A054B7047000032
:100710007D00000068030020000300206804002022
:1007200000000020002203098B422CD3030A8B42D5
:1007300011D300239C464EE003460B433CD40022D9
:1007400043088B4231D303098B421CD3030A8B42EB
:1007500001D394463FE0C3098B4201D3CB01C01AB9
:10076000524183098B4201D38B01C01A5241430984
:100770008B4201D34B01C01A524103098B4201D372
:100780000B01C01A5241C3088B4201D3CB00C01ADF
:10079000524183088B4201D38B00C01A5241430857
:1007A0008B4201D34B00C01A5241411A00D201467C
:1007B0005241104670475DE0CA0F00D04942031015
:1007C00000D34042534000229C4603098B422DD364
:1007D000030A8B4212D3FC22890112BA030A8B420C
:1007E0000CD3890192118B4208D3890192118B425B
:1007F00004D389013AD0921100E08909C3098B42E0
:1008000001D3CB01C01A524183098B4201D38B0122
:10081000C01A524143098B4201D34B01C01A5241C5
:1008200003098B4201D30B01C01A5241C3088B420A
:1008300001D3CB00C01A524183088B4201D38B00F5
:10084000C01A5241D9D243088B4201D34B00C01A7F
:100850005241411A00D20146634652415B10104694
:1008600001D34042002B00D54942704763465B10DC
:1008700000D3404201B50020C046C04602BD7047CB
:1008800070477047754600F025F8AE46050069468A
:100890005346C008C000854618B020B5FFF732FFA8
:1008A00060BC00274908B6460026C0C5C0C5C0C503
:1008B000C0C5C0C5C0C5C0C5C0C5403D49008D4606
:1008C000704710B50446C046C0462046FFF721FCDD
:1008D00010BD0000004870470403002001491820A3
:1008E000ABBEFEE72600020070470000F8B53848AE
:1008F00000903848C16B01221143C1630025354C7B
:10090000E06B35490840E905C90B0843E063002660
:10091000206BC007C00F02D000F062F8761C082ED2
:10092000F6D300273E462B48006BC007C00FFAD015
:1009300000F056F8002000F05DF80446012000F0B9
:1009400059F82418022000F055F82418032000F06C
:1009500051F82418042000F04DF82418052000F068
:1009600049F82418062000F045F82418072000F064
:1009700041F82018C010761C3F18B6B2082ED2D30A
:10098000F81000B215490028088014DC1348002232
:10099000825E00995242914214DA2902FF390139EC
:1009A000CA030C49D20BCB6B0B4C23401A43CA63CE
:1009B0000099018006E06D1CADB20090E81FFF3881
:1009C000FA389CD10348C16B49084900C163F8BD9E
:1009D000FF07000000000E40FF00FEFF02030020A2
:1009E0000348016BC908C900491C01637047000036
:1009F00000000E4002498000085800B27047000015
:100A000000000E40054901208A68000702438A6001
:100A10000349C8600020C860704700000002005011
:100A20000000005002498A6882438A6070470000D3
:100A30000002005002498A6802438A607047000041
:100A40000002005010B5034840694003400F00F019
:100A500047F810BD0002005010B50C4A106940075D
:100A6000400F10D0022809D0042809D00848916905
:100A70000907090F491CFFF755FE10BD0548F6E7A9
:100A800000F00AF8F3E77D200002F0E700020050D2
:100A9000006CDC02808D5B000448006A0449C006DB
:100AA000800F48430349401870470000000200507F
:100AB000808D5B0080C3C90110B5074840690007FD
:100AC000800F04D0022805D0FFF7C6FF10BDFFF746
:100AD000E3FF10BD014810BD00020050006CDC02B5
:100AE000014610B50020012906D0032903D00429AE
:100AF00005D0FFF7B1FF10BD7D20000210BD0148F9
:100B000010BD0000006CDC02084910B5884202D11B
:100B10008414092002E0012464030B2000F09EF8F5
:100B200003488168A143816010BD000000000340BC
:100B30000002005001680122120491435200114347
:100B400001600749884201D1092000E00B20012102
:100B500081404009034A800080180160704700000E
:100B60000000034000E100E070B5134B984201D152
:100B7000831402E0520801235B03104CA5681D4357
:100B8000A5600F4CE3600023E36001231B041943BD
:100B90000160426004460B48844205D1FFF75CFFC8
:100BA0006168491C490003E0FFF756FF6168491C72
:100BB000FFF7B8FD70BD00000000034000020050C8
:100BC00000000050004003400249C8600020C86097
:100BD00070470000000000500348592101601621B1
:100BE00001608821016070470001005010B510209D
:100BF000FFF7EAFF1020FFF715FF10BD70B505469F
:100C00000C461020FFF716FF1020FFF7DDFF044A07
:100C10005068000C000420435060156070BD000057
:100C20004000014070B506460025FFF70BFF7D210F
:100C3000C900FFF777FD81B20920C006FFF7DEFF8C
:100C40000548C1688CB2AC4201D2761E01D025465F
:100C5000F7E7FFF7CBFF70BD40000140C206D20EA0
:100C6000012191404009024A8000801801607047CC
:100C700080E100E0A40C000000030020040000005C
:100C8000C0000000A80C0000040300206000000069
:100C9000DC000000A80C0000640300200401000038
:080CA000DC0000000000000070
:04000005000006F5FC
:00000001FF
